:020000040800F2
:1060000000FC00204DD20008C9D20008CBD2000805
:10601000CDD20008CFD20008D1D200080000000085
:10602000000000000000000000000000D3D20008C3
:10603000D5D2000800000000D7D20008D9D200084D
:106040009DD200089DD200089DD200089DD2000874
:106050009DD200089DD200084FD3000855D30008F8
:106060005BD3000861D3000867D3000805D300089C
:1060700011D300081DD3000829D300089DD20008C1
:106080009DD200089DD200089DD200089DD2000834
:106090009DD200089DD200086DD300089DD2000853
:1060A0009DD200089DD200089DD200089DD2000814
:1060B0009DD200089DD200089DD200089DD2000804
:1060C00019D4000825D400089DD200089DD20008EC
:1060D00035D300084DD3000801D400089DD2000834
:1060E0009DD20008ADD30008EDD200089DD2000873
:1060F0009DD200089DD200089DD200089DD20008C4
:106100009DD200089DD20008F9D200089DD2000857
:106110009DD200089DD200089DD200089DD20008A3
:106120009DD200089DD200089DD200089DD2000893
:086130009DD200089DD2000879
:1061400010B5054C237833B9044B13B10448AFF3B1
:1061500000800123237010BD780D00200000000096
:10616000E0F8020808B5034B1BB103490348AFF33D
:10617000008008BD000000007C0D0020E0F802084F
:1061800010F8012B11F8013B012A28BF9A42F7D0E1
:10619000D01A7047034613F8012B002AFBD1181AB6
:1061A00001387047000000000000000000000000FF
:1061B00001F0FF01102A2BDB10F0070F08D010F8B8
:1061C000013B013A8B422DD010F0070F42B3F6D1BC
:1061D000F0B441EA012141EA014122F007047FF0D5
:1061E00000070023F0E80256083C85EA010586EA2C
:1061F000010685FA47F5A3FA87F586FA47F6A5FA68
:1062000087F68EB9EED1F0BC01F0FF0102F0070273
:1062100032B110F8013B013A83EA010313B1F8D11E
:106220000020704701387047002D06BF35460338FF
:10623000073815F0010F07D1013015F4807F02BF38
:10624000013015F4C03F0130F0BC0138704700BF89
:1062500081F0004102E000BF83F0004330B54FEA17
:1062600041044FEA430594EA050F08BF90EA020F84
:106270001FBF54EA000C55EA020C7FEA645C7FEA17
:10628000655C00F0E2804FEA5454D4EB5555B8BF3A
:106290006D420CDD2C4480EA020281EA030382EAAB
:1062A000000083EA010180EA020281EA0303362D3D
:1062B00088BF30BD11F0004F4FEA01314FF4801C10
:1062C0004CEA113102D0404261EB410113F0004F22
:1062D0004FEA03334CEA133302D0524263EB4303D9
:1062E00094EA050F00F0A780A4F10104D5F1200E77
:1062F0000DDB02FA0EFC22FA05F2801841F10001D2
:1063000003FA0EF2801843FA05F359410EE0A5F1A5
:1063100020050EF1200E012A03FA0EFC28BF4CF0D6
:10632000020C43FA05F3C01851EBE37101F000458C
:1063300007D54FF0000EDCF1000C7EEB00006EEB99
:106340000101B1F5801F1BD3B1F5001F0CD3490823
:106350005FEA30004FEA3C0C04F101044FEA44527A
:1063600012F5800F80F09A80BCF1004F08BF5FEA01
:10637000500C50F1000041EB045141EA050130BDE1
:106380005FEA4C0C404141EB0101013C28BFB1F5F3
:10639000801FE9D291F0000F04BF01460020B1FA3E
:1063A00081F308BF2033A3F10B03B3F120020CDA11
:1063B0000C3208DD02F1140CC2F10C0201FA0CF0EF
:1063C00021FA02F10CE002F11402D8BFC2F1200C54
:1063D00001FA02F120FA0CFCDCBF41EA0C0190400A
:1063E000E41AA2BF01EB0451294330BD6FEA040453
:1063F0001F3C1CDA0C340EDC04F11404C4F120023E
:1064000020FA04F001FA02F340EA030021FA04F34F
:1064100045EA030130BDC4F10C04C4F1200220FAA6
:1064200002F001FA04F340EA0300294630BD21FAE4
:1064300004F0294630BD94F0000F83F4801306BFAA
:1064400081F480110134013D4EE77FEA645C18BF9E
:106450007FEA655C29D094EA050F08BF90EA020F35
:1064600005D054EA000C04BF1946104630BD91EA2D
:10647000030F1EBF0021002030BD5FEA545C05D130
:106480004000494128BF41F0004130BD14F580046F
:106490003CBF01F5801130BD01F0004545F0FE41E3
:1064A00041F470014FF0000030BD7FEA645C1ABF18
:1064B000194610467FEA655C1CBF0B46024650EA4F
:1064C000013406BF52EA033591EA030F41F400217B
:1064D00030BD00BF90F0000F04BF0021704730B501
:1064E0004FF4806404F132044FF000054FF00001D6
:1064F00050E700BF90F0000F04BF0021704730B597
:106500004FF4806404F1320410F0004548BF40426B
:106510004FF000013EE700BF42004FEAE2014FEAC0
:1065200031014FEA02701FBF12F07F4393F07F4F9B
:1065300081F06051704732F07F4208BF704793F09E
:106540007F4F04BF41F40021704730B54FF46074B1
:1065500001F0004521F000411CE700BF50EA0102B4
:1065600008BF704730B54FF000050AE050EA01025D
:1065700008BF704730B511F0004502D5404261EBCD
:1065800041014FF4806404F132045FEA915C3FF40E
:10659000D8AE4FF003025FEADC0C18BF03325FEAAB
:1065A000DC0C18BF033202EBDC02C2F1200300FA5C
:1065B00003FC20FA02F001FA03FE40EA0E0021FA81
:1065C00002F11444BDE600BF70B54FF0FF0C4CF46F
:1065D000E06C1CEA11541DBF1CEA135594EA0C0F21
:1065E00095EA0C0F00F0DEF82C4481EA030621EA5C
:1065F0004C5123EA4C5350EA013518BF52EA033597
:1066000041F4801143F4801338D0A0FB02CE4FF048
:106610000005E1FB02E506F00042E0FB03E54FF078
:106620000006E1FB03569CF0000F18BF4EF0010E70
:10663000A4F1FF04B6F5007F64F5407404D25FEA6C
:106640004E0E6D4146EB060642EAC62141EA55511F
:106650004FEAC52040EA5E504FEACE2EB4F1FD0C61
:1066600088BFBCF5E06F1ED8BEF1004F08BF5FEADF
:10667000500E50F1000041EB045170BD06F0004691
:1066800046EA010140EA020081EA0301B4EB5C043E
:10669000C2BFD4EB0C0541EA045170BD41F4801136
:1066A0004FF0000E013C00F3AB8014F1360FDEBF5B
:1066B000002001F0004170BDC4F10004203C35DA37
:1066C0000C341BDC04F11404C4F1200500FA05F3BA
:1066D00020FA04F001FA05F240EA020001F000425B
:1066E00021F0004110EBD37021FA04F642EB0601D1
:1066F0005EEA430E08BF20EAD37070BDC4F10C04FB
:10670000C4F1200500FA04F320FA05F001FA04F2BE
:1067100040EA020001F0004110EBD37041F10001AA
:106720005EEA430E08BF20EAD37070BDC4F12005B5
:1067300000FA05F24EEA020E20FA04F301FA05F21D
:1067400043EA020321FA04F001F0004121FA04F2C5
:1067500020EA020000EBD3705EEA430E08BF20EA95
:10676000D37070BD94F0000F0FD101F000464000CF
:1067700041EB010111F4801F08BF013CF7D041EA51
:10678000060195F0000F18BF704703F00046520055
:1067900043EB030313F4801F08BF013DF7D043EA26
:1067A0000603704794EA0C0F0CEA135518BF95EADC
:1067B0000C0F0CD050EA410618BF52EA4306D1D163
:1067C00081EA030101F000414FF0000070BD50EA82
:1067D000410606BF1046194652EA430619D094EA0C
:1067E0000C0F02D150EA013613D195EA0C0F05D1F6
:1067F00052EA03361CBF104619460AD181EA03014A
:1068000001F0004141F0FE4141F470014FF0000001
:1068100070BD41F0FE4141F4780170BD70B54FF09C
:10682000FF0C4CF4E06C1CEA11541DBF1CEA13551C
:1068300094EA0C0F95EA0C0F00F0A7F8A4EB0504FE
:1068400081EA030E52EA03354FEA013100F08880F5
:106850004FEA03334FF0805545EA131343EA1263BE
:106860004FEA022245EA111545EA10654FEA002673
:106870000EF000419D4208BF964244F1FD0404F52C
:10688000407402D25B084FEA3202B61A65EB030588
:106890005B084FEA32024FF480104FF4002CB6EB45
:1068A000020E75EB030E22BFB61A754640EA0C00C5
:1068B0005B084FEA3202B6EB020E75EB030E22BF05
:1068C000B61A754640EA5C005B084FEA3202B6EB46
:1068D000020E75EB030E22BFB61A754640EA9C0005
:1068E0005B084FEA3202B6EB020E75EB030E22BFD5
:1068F000B61A754640EADC0055EA060E18D04FEA93
:10690000051545EA16754FEA06164FEAC30343EA32
:1069100052734FEAC2025FEA1C1CC0D111F4801FFF
:106920000BD141EA00014FF000004FF0004CB6E7F8
:1069300011F4801F04BF01430020B4F1FD0C88BF97
:10694000BCF5E06F3FF6AFAEB5EB030C04BFB6EBA2
:10695000020C5FEA500C50F1000041EB045170BD95
:106960000EF0004E4EEA113114EB5C04C2BFD4EBC2
:106970000C0541EA045170BD41F480114FF0000E46
:10698000013C90E645EA060E8DE60CEA135594EAC2
:106990000C0F08BF95EA0C0F3FF43BAF94EA0C0FC5
:1069A0000AD150EA01347FF434AF95EA0C0F7FF43A
:1069B00025AF104619462CE795EA0C0F06D152EA8E
:1069C00003353FF4FDAE1046194622E750EA410672
:1069D00018BF52EA43067FF4C5AE50EA41047FF483
:1069E0000DAF52EA43057FF4EBAE12E74FF0FF3CE8
:1069F00006E000BF4FF0010C02E000BF4FF0010CB9
:106A00004DF804CD4FEA410C7FEA6C5C4FEA430C31
:106A100018BF7FEA6C5C1BD001B050EA410C0CBF80
:106A200052EA430C91EA030F02BF90EA020F0020E2
:106A3000704710F1000F91EA030F58BF994208BF49
:106A400090422CBFD8176FEAE37040F00100704706
:106A50004FEA410C7FEA6C5C02D150EA013C07D15D
:106A60004FEA430C7FEA6C5CD6D152EA033CD3D0A8
:106A70005DF8040B704700BF8446104662468C46A2
:106A80001946634600E000BF01B5FFF7B7FF0028D5
:106A900048BF10F1000F01BD4DF808EDFFF7F4FFFE
:106AA0000CBF012000205DF808FB00BF4DF808ED89
:106AB000FFF7EAFF34BF012000205DF808FB00BFAC
:106AC0004DF808EDFFF7E0FF94BF012000205DF8CE
:106AD00008FB00BF4DF808EDFFF7CEFF94BF012083
:106AE00000205DF808FB00BF4DF808EDFFF7C4FF7C
:106AF00034BF012000205DF808FB00BF4FEA410CC5
:106B00007FEA6C5C02D150EA013C0AD14FEA430CA7
:106B10007FEA6C5C02D152EA033C02D14FF00000E4
:106B200070474FF0010070474FEA410212F5001222
:106B300015D211D56FF47873B3EB625212D94FEAC4
:106B4000C12343F0004343EA505311F0004F23FAAE
:106B500002F018BF404270474FF00000704750EA03
:106B6000013005D111F0004008BF6FF000407047C0
:106B70004FF00000704700BF4A0011D212F500121A
:106B800011D20DD56FF47873B3EB62520ED44FEA85
:106B9000C12343F0004343EA505323FA02F0704705
:106BA0004FF00000704750EA013002D14FF0FF3043
:106BB00070474FF0000070474FEA4102B2F1E043E6
:106BC00024BFB3F5001CDCF1FE5C0DD901F0004CD4
:106BD0004FEAC0024CEA5070B2F1004F40EB830024
:106BE00008BF20F00100704711F0804F21D113F150
:106BF0003872BCBF01F00040704741F480114FEA89
:106C00005252C2F11802C2F1200C10FA0CF320FA11
:106C100002F018BF40F001004FEAC1234FEAD3232E
:106C200003FA0CFC40EA0C0023FA02F34FEA430398
:106C3000CCE77FEA625307D150EA01331EBF4FF021
:106C4000FE4040F44000704701F0004040F0FE403C
:106C500040F40000704700BF80F0004002E000BF39
:106C600081F0004142001FBF5FEA410392EA030F37
:106C70007FEA226C7FEA236C6AD04FEA1262D2EB81
:106C80001363C1BFD218414048404140B8BF5B4286
:106C9000192B88BF704710F0004F40F4000020F01F
:106CA0007F4018BF404211F0004F41F4000121F035
:106CB0007F4118BF494292EA030F3FD0A2F101027F
:106CC00041FA03FC10EB0C00C3F1200301FA03F1BD
:106CD00000F0004302D5494260EB4000B0F5000FE0
:106CE00013D3B0F1807F06D340084FEA310102F19F
:106CF0000102FE2A51D2B1F1004F40EBC25008BF51
:106D000020F0010040EA03007047490040EB00001A
:106D1000013A28BFB0F5000FEDD2B0FA80FCACF11B
:106D2000080CB2EB0C0200FA0CF0AABF00EBC25048
:106D300052421843BCBFD0401843704792F0000F36
:106D400081F4000106BF80F400000132013BB5E789
:106D50004FEA41037FEA226C18BF7FEA236C21D0FF
:106D600092EA030F04D092F0000F08BF0846704764
:106D700090EA010F1CBF0020704712F07F4F04D132
:106D8000400028BF40F00040704712F100723CBF45
:106D900000F50000704700F0004343F0FE4040F46F
:106DA000000070477FEA226216BF08467FEA23632D
:106DB0000146420206BF5FEA412390EA010F40F418
:106DC000800070474FF0000304E000BF10F0004364
:106DD00048BF40425FEA000C08BF704743F096434B
:106DE00001464FF000001CE050EA010208BF704766
:106DF0004FF000030AE000BF50EA010208BF7047ED
:106E000011F0004302D5404261EB41015FEA010C01
:106E100002BF84460146002043F0B64308BFA3F1F9
:106E20008053A3F50003BCFA8CF2083AA3EBC253DB
:106E300010DB01FA02FC634400FA02FCC2F12002FA
:106E4000BCF1004F20FA02F243EB020008BF20F031
:106E50000100704702F1200201FA02FCC2F1200297
:106E600050EA4C0021FA02F243EB020008BF20EA8C
:106E7000DC7070474FF0FF0C1CEAD0521EBF1CEABA
:106E8000D15392EA0C0F93EA0C0F6FD01A4480EAA8
:106E9000010C400218BF5FEA41211ED04FF0006391
:106EA00043EA501043EA5111A0FB01310CF00040BD
:106EB000B1F5000F3EBF490041EAD3715B0040EAE3
:106EC000010062F17F02FD2A1DD8B3F1004F40EBB3
:106ED000C25008BF20F00100704790F0000F0CF086
:106EE000004C08BF49024CEA502040EA51207F3A4A
:106EF000C2BFD2F1FF0340EAC250704740F4000025
:106F00004FF00003013A5DDC12F1190FDCBF00F015
:106F100000407047C2F10002410021FA02F1C2F1C3
:106F2000200200FA02FC5FEA310040F1000053EA5F
:106F30004C0308BF20EADC70704792F0000F00F0AD
:106F4000004C02BF400010F4000F013AF9D040EAB3
:106F50000C0093F0000F01F0004C02BF490011F447
:106F6000000F013BF9D041EA0C018FE70CEAD15345
:106F700092EA0C0F18BF93EA0C0F0AD030F0004CC5
:106F800018BF31F0004CD8D180EA010000F0004079
:106F9000704790F0000F17BF90F0004F084691F037
:106FA000000F91F0004F14D092EA0C0F01D1420271
:106FB0000FD193EA0C0F03D14B0218BF084608D13A
:106FC00080EA010000F0004040F0FE4040F4000084
:106FD000704740F0FE4040F4400070474FF0FF0C17
:106FE0001CEAD0521EBF1CEAD15392EA0C0F93EA5E
:106FF0000C0F69D0A2EB030280EA010C49024FEAB0
:10700000402037D04FF0805343EA111143EA101368
:107010000CF000408B4238BF5B0042F17D024FF420
:10702000000C8B4224BF5B1A40EA0C00B3EB510FFB
:1070300024BFA3EB510340EA5C00B3EB910F24BFE4
:10704000A3EB910340EA9C00B3EBD10F24BFA3EB69
:10705000D10340EADC001B0118BF5FEA1C1CE0D131
:10706000FD2A3FF650AF8B4240EBC25008BF20F0E4
:10707000010070470CF0004C4CEA50207F32C2BF38
:10708000D2F1FF0340EAC250704740F400004FF0D5
:107090000003013A37E792F0000F00F0004C02BF06
:1070A000400010F4000F013AF9D040EA0C0093F0D0
:1070B000000F01F0004C02BF490011F4000F013B2A
:1070C000F9D041EA0C0195E70CEAD15392EA0C0F92
:1070D00008D142027FF47DAF93EA0C0F7FF470AFCA
:1070E000084676E793EA0C0F04D14B023FF44CAF0D
:1070F00008466EE730F0004C18BF31F0004CCAD1A2
:1071000030F000427FF45CAF31F000437FF43CAFDD
:107110005FE700BF4FF0FF3C06E000BF4FF0010CFF
:1071200002E000BF4FF0010C4DF804CD4FEA4002E1
:107130004FEA41037FEA226C18BF7FEA236C11D02B
:1071400001B052EA530C18BF90EA010F58BFB2EBDE
:10715000030088BFC81738BF6FEAE17018BF40F05E
:10716000010070477FEA226C02D15FEA402C05D112
:107170007FEA236CE4D15FEA412CE1D05DF8040B97
:10718000704700BF844608466146FFE70FB5FFF72A
:10719000C9FF002848BF10F1000F0FBD4DF808EDE2
:1071A000FFF7F4FF0CBF012000205DF808FB00BFD3
:1071B0004DF808EDFFF7EAFF34BF012000205DF82D
:1071C00008FB00BF4DF808EDFFF7E0FF94BF01207A
:1071D00000205DF808FB00BF4DF808EDFFF7D2FF77
:1071E00094BF012000205DF808FB00BF4DF808EDBA
:1071F000FFF7C8FF34BF012000205DF808FB00BF87
:1072000042000ED2B2F1FE4F0BD34FF09E03B3EB10
:10721000126209D44FEA002343F0004323FA02F03C
:1072200070474FF00000704712F1610F01D1420228
:1072300002D14FF0FF3070474FF00000704700BFA1
:1072400053B94AB9002908BF00281CBF4FF0FF31CD
:107250004FF0FF3001F0D2B8ADF1080C6DE904CE6B
:1072600000F01AF8DDF804E0DDE9022304B070470D
:10727000430803F05533C01A830803F0333300F09A
:107280003330184400EB101000F00F3000EB0020FA
:1072900000EB0040000E70472DE9F047089E0D46B8
:1072A00004468E46002B40F082808A42174646D91B
:1072B000B2FA82F24AB1C2F1200105FA02F320FAD1
:1072C00001F1974041EA030E94404FEA1748230C1E
:1072D000BEFBF8FCB9B208FB1CEE43EA0E430CFB04
:1072E00001F098420AD9FB180CF1FF3580F01681A5
:1072F000984240F21381ACF1020C3B441B1AA4B239
:10730000B3FBF8F008FB103344EA034400FB01F13F
:10731000A14209D93C1900F1FF3380F00181A1425B
:1073200040F2FE8002383C44641A40EA0C400021DE
:107330001EB1D4400023C6E90043BDE8F08702B97E
:10734000FFDEB2FA82F2002A4FD1CB1B4FEA174E72
:107350001FFA87F80121B3FBFEFC250C0EFB1C3342
:1073600045EA034508FB0CF3AB4207D97D190CF144
:10737000FF3002D2AB4200F2E7808446ED1AA3B29E
:10738000B5FBFEF00EFB105543EA054408FB00F880
:10739000A04507D93C1900F1FF3302D2A04500F205
:1073A000D7801846A4EB080440EA0C40C0E78B42A3
:1073B00008D9002E00F0AF800021C6E9000508467C
:1073C000BDE8F087B3FA83F100294BD1AB4202D379
:1073D000824200F2B780841A65EB030301209E46C7
:1073E000002EAAD0C6E9004EA7E7C2F1200C01FA90
:1073F00002F3974020FA0CF04FEA174E21FA0CFCEA
:107400001843BCFBFEF1050C0EFB11CC1FFA87F8EC
:1074100045EA0C4501FB08F3AB4204FA02F409D932
:107420007D1901F1FF3C80F08B80AB4240F28880F7
:1074300002393D44EB1A85B2B3FBFEF00EFB10336C
:1074400045EA034500FB08F3AB4207D97D1900F17B
:10745000FF3C71D2AB426FD902383D44EB1A40EA8F
:10746000014178E7C1F1200C8B4022FA0CF71F4351
:1074700020FA0CF405FA01F34FEA174E25FA0CF541
:107480001C43230CB5FBFEF91FFA87F80EFB1955B8
:1074900043EA054509FB08FAAA4502FA01F200FA97
:1074A00001F308D97D1909F1FF3047D2AA4545D922
:1074B000A9F102093D44A5EB0A05A4B2B5FBFEF013
:1074C0000EFB105544EA054400FB08F8A04507D917
:1074D0003C1900F1FF352DD2A0452BD902383C4490
:1074E00040EA0940A4EB0804A0FB02894C45C646CB
:1074F0004D4619D316D05EB1B3EB0E0264EB050412
:1075000004FA0CFCCA404CEA0202CC40C6E9002452
:107510000021BDE8F087314630460EE7AC46EDE687
:10752000184601E74345E6D2B8EB020E69EB0705C2
:107530000138E0E72846D3E760468FE78146BAE79F
:10754000614677E708464BE7ACF1020C3D4415E78E
:1075500002383C4426E700BF03685A004CBF43F0A2
:10756000004323F000431844704700BF2DE9F8435F
:1075700029B34F1E044615463E464FF0000808EB5F
:10758000060101EBD171491004EBC1094846FFF730
:10759000E3FF0346C80008308F42204409D0AB42C5
:1075A00009D8FFF7D9FF0138A8420AD201F1010832
:1075B000E5E7AB4205D9884501D04E1EDFE74FF025
:1075C00000094846BDE8F883012807D0022807D003
:1075D000044B00280CBF1846002070470248704733
:1075E000024870478D7C0008917C0008957C00085B
:1075F00030B5234B83B004468D1E3BB301A928460A
:10760000AFF30080E8B101992A46FFF7AFFF0146CA
:10761000B8B1FFF7A1FF4B68A064012B2BD0002B62
:1076200001F1040023DBFFF797FF0023C4E91303F4
:107630000368002B10DBFFF78FFF2061002003B0F1
:1076400030BD00230920236103B030BD0D490E4831
:10765000091AC9100191D7E7C3F30360FFF7B4FF1C
:107660000028206114BF0020092003B030BD012391
:10767000C4E91303DCE7002323610520DFE700BF33
:1076800000000000083C0308483903080368DA07D3
:1076900010B5044606D49B0700F1480009D500F058
:1076A0004BFC2368590709D51A070ED5DB0613D5FD
:1076B00010BD00F039FC23685907F5D404F1D0005F
:1076C00000F042FC23681A07F0D404F5A87000F01B
:1076D00043FC2368DB06EBD404F5E870BDE81040FA
:1076E00000F07EBC0346006800B11844704700BF3C
:1076F00009207047704700BF70B504460E46316CD4
:107700002046FFF775FF054688B9336C6361324642
:1077100023692146012098470828F0D0072806D180
:107720002846316CFFF7E6FF301D00F0F1FB28F032
:1077300075F800BF2DE9F0470D1D064614460FCD24
:10774000ADF5727D0DF10C0CACE80F000FCDACE87F
:107750000F000FCDACE80F0095E80F0002ADF76801
:10776000D6F818808CE80F0000232B6021E02B6CEA
:1077700073614FF4F07229467AA802F0FFFC336976
:107780007AAA314650469847889BCDE90058214651
:107790006B648146334632460120B8470446E8B957
:1077A0004FF4F0727AA9284602F0E8FCB9F1080F0C
:1077B0001BD1296C3046FFF71BFF09345FFA84FAAE
:1077C00081460028D3D0AB6B4AF01001CDE90058B8
:1077D00032466B6401203346B84708B14FF00909BF
:1077E00048460DF5727DBDE8F087B9F1070FF5D178
:1077F0002046296CFFF77EFF03A800F089FB00BF3D
:10780000406C7047F0B5CB6B0B640E1D0F46054600
:107810000FCEF9B001AC0FC40FCE0FC40FCE0FC402
:1078200096E80F004FF0FF3684E80F00009606E060
:107830002B696A46294698470828044608D11099BA
:107840002846FFF7D5FE0028F2D0092079B0F0BD18
:107850006846FFF71BFF062CF7D139462846FFF78D
:107860004BFF00BF30B4DD6BC160826119461D64FF
:10787000002230BC5EE700BF70B5C66843690B6488
:10788000AEB903690A4604460D46014602209847F0
:10789000072805D008280FD129462046FFF72CFFDE
:1078A0003046296CFFF726FF281D00F031FB01222E
:1078B000FFF740FF27F0B2FF27F0B0FFC2681AB110
:1078C000CA6B0A64002235E79CE700BF704700BF1F
:1078D000836801460BB1012018477047012912D077
:1078E00009D873B90F2A0CD800EB820218465368E6
:1078F000009A136070470339012994BF01200220C8
:107900007047022070470846704700BF10B584B02A
:10791000002303AC0A4600941946FFF7DFFF0398E3
:1079200004B010BD012912D009D873B90F2A0CD8A0
:1079300000EB8200009A12684260184670470339D3
:10794000012994BF01200220704702207047084699
:10795000704700BF10B584B0002303AC03920094BD
:107960000A461946FFF7DEFF04B010BDF0B5D36B31
:107970001364151D8C4606460FCDADF50F7D17AC73
:107980000FC40FCD0FC40FCD0FC495E80F004FF0FB
:10799000FF3784E80F006546169710E0FFF7DAFF1F
:1079A000294616A8B047034616AA6946082083B997
:1079B000049B9847052804460CD0092809D026992D
:1079C0006846FFF715FE03466A460C2116A8002BF1
:1079D000E4D0092416A8FFF759FE20460DF50F7DC7
:1079E000F0BD00BF2DE9F04FCC6C89B00D4654F8C6
:1079F000041B0694174600F003081E46002B79D09E
:107A00000B0CDAB209048DF81D30022304EB82045A
:107A100005918DF81C302B6DB8F1020F08BFAC6BCF
:107A200013F001030CD0384605A900F073FB18B918
:107A3000082009B0BDE8F08F092009B0BDE8F08F3B
:107A4000D4F800A0BAF1000FEDD0019300F00803C4
:107A50000293022E4AD0B4F800A0B4F80290043485
:107A6000AA6C29F0010B0F2138469344FFF74EFF13
:107A7000834539D82AF001025A44824294BF00203B
:107A800001204FEA490303F002030AF0010A43EA26
:107A90000A03012B49D0022B32D0002BCCD1B8F1F4
:107AA000000F02D0002840F0CD800434D4F800A0AC
:107AB000BAF1000FCDD105A9384600F02BFB002804
:107AC000BAD1019B002BB3D00F213846FFF71EFF20
:107AD0000E2102463846FFF73DFF38466A4A0F211D
:107AE000FFF738FF0720A8E70020CAE7D4F8049082
:107AF0000834B5E7090203230591ADF81C308AE785
:107B0000236823F0004BB8F1000F45D128B1029A49
:107B1000002A5CD0BBF1000F74D0002B00DA0434D3
:107B20000BF1010B04EB8B04C0E7B8F1000F19D186
:107B3000B0B1D4E90023991C4FEAD2723FF47CAF74
:107B400005F158010133049100F09080201DFFF7EA
:107B5000C9FD04AB0146284626F0D4FA00285BD1C3
:107B60000834A3E70D213846D5F82090FFF7CEFE64
:107B70008145F5D1AB6A9C42F2D12046FFF7ECFC7F
:107B80000F2102463846FFF7E5FE38462A46002117
:107B9000FFF7E0FE072050E70D213846D5F820908A
:107BA000FFF7B4FE814501D02368B6E7AB6A9C427B
:107BB000FAD104220021C5E90B12A318C5F828B098
:107BC0006B6323688B4259DB01230193A8E705F11E
:107BD0005803CDF80C8004F1040AB04691461E46C5
:107BE0000DE00496FFF77EFD04AB01460022284617
:107BF00026F088FA09F101090AF1040AE8B9D94521
:107C00005046EED138460D21FFF780FE049B2862D6
:107C1000C5E90934062010E781460D213846FFF7F3
:107C200075FEB9F1020F286225D12B46049A43F85C
:107C30002C2F6B62AC620620FFE646462368DDF817
:107C40000C806AE72046FFF787FC04340246AC63E9
:107C50002846144626F0B4FA00283FF4EDAE384624
:107C600022460F21FFF776FE0720E6E638460D2173
:107C7000FFF74CFE2862049B6B62DBE70BF101000F
:107C800004EB80007AE700BF0DE902080023A9E6B3
:107C90000123A7E60223A5E62DE9F0430646C3B07B
:107CA00015461C46042900F2B980DFE801F09A531A
:107CB000B7290300002C40F0B180102A00F2AE80FA
:107CC0000368D80600F1F38020AF384600F092F93F
:107CD000B06B0023012404FA03F22A42014604D0C7
:107CE00051F8042B47F8232008460133042BF2D126
:107CF000B063384600F074F9002043B0BDE8F0836B
:107D0000032C40F08B8094B204EB1243102B4FEA0B
:107D1000124500F2838003681F0700F1D08020AF76
:107D2000384600F03BF907EBC501B56B54B10B4683
:107D3000E81A01EBC401E4001A5843F8042B8B4203
:107D4000FAD125443846B56300F006F9002043B067
:107D5000BDE8F083012C4FEA124895B25AD0052CA9
:107D60005CD108EB0509B9F1200F57D8B8F10F0F16
:107D700077D9A946002D40F08880B36B6DB320AF52
:107D80004FF0000907EBC807043F03EBC50553F8A4
:107D9000041B47F8041FAB42F9D1B9F1000F0FD013
:107DA0006F464146102938BF102107EBC1018439C5
:107DB00003EBC90553F8040B41F8040FAB42F9D1AA
:107DC000012C00F08480B8F10F0FB56345D9B9F1EB
:107DD000000F02D0684600F0B7F8002043B0BDE8BD
:107DE000F083DCB9876B2346012094B206F1040CC2
:107DF00000FA03F22242394604D051F8042B4CF821
:107E000023200F460133102BF2D115F40050E4D19A
:107E1000B76304E008EB0503102B03D9022043B03D
:107E2000BDE8F083B8F10F0FF8D83368DA0706D54C
:107E3000304623F0030340F8483B00F079F820AFC8
:107E4000384600F075F8B36B002D99D11D46043506
:107E5000B563384600F068F8BFE720A800F06CF87A
:107E6000B5E7B9F1100F40D9A9F110093368D90766
:107E700008D523F00103304643F0020340F8483BA5
:107E800000F05EF8B9F1000F32D033685A0720D401
:107E9000B8F10F0F25D96F463846C8F1100500F02C
:107EA00057F8002DB36B7FF77CAF20AF6AE723F064
:107EB0001003336006F5E87000F09CF804E723F047
:107EC0000803036000F5A87000F068F827E720AF0A
:107ED000BDE7304623F0040340F8D03B00F038F80B
:107EE000D6E720A800F02CF8D5E74FF00009BDE751
:107EF000B8F10F0F3FF641AF20AF384600F020F841
:107F0000B36B002D7FF43CAF384600F015F864E702
:107F100000F1340191E838009C46A6464CF8045D17
:107F200090E8FF0FE54600BD90EC210B704700BFC5
:107F300080EC210B704700BF90EC200B704700BF16
:107F400080EC200B704700BFD0EC200B704700BFC7
:107F5000C0EC200B704700BFF0EC0201F0EC021106
:107F6000F0EC0221F0EC0231F0EC0241F0EC0251B5
:107F7000F0EC0261F0EC0271F0EC0281F0EC0291A5
:107F8000F0EC02A1F0EC02B1F0EC02C1F0EC02D195
:107F9000F0EC02E1F0EC02F1704700BFE0EC02010E
:107FA000E0EC0211E0EC0221E0EC0231E0EC0241F5
:107FB000E0EC0251E0EC0261E0EC0271E0EC0281E5
:107FC000E0EC0291E0EC02A1E0EC02B1E0EC02C1D5
:107FD000E0EC02D1E0EC02E1E0EC02F1704700BF1E
:107FE000B0FC0181B0FC0191B0FC01A1B0FC01B179
:107FF000704700BFA0FC0181A0FC0191A0FC01A181
:10800000A0FC01B1704700BFEC4600B52DE900505F
:108010002DE9FF1F4FF000032DE90C0001A9FFF728
:10802000F1FBDDF840E012B0704700BFEC4600B550
:108030002DE900502DE9FF1F4FF000032DE90C0042
:1080400001A9FFF719FCDDF840E012B0704700BF4E
:10805000EC4600B52DE900502DE9FF1F4FF000035D
:108060002DE90C0001A9FFF729FCDDF840E012B072
:10807000704700BFEC4600B52DE900502DE9FF1F09
:108080004FF000032DE90C0001ABFFF7EBFBDDF82F
:1080900040E012B0704700BFEC4600B52DE900503B
:1080A0002DE9FF1F4FF000032DE90C0001AAFFF797
:1080B0005DFCDDF840E012B0704700BF027A7AB98B
:1080C000437AA3B14268013B10B4437213680321A1
:1080D000141D01721A024460026010BC180E704731
:1080E0000368013A02721A020260180E7047B0204B
:1080F000704700BF00B585B003AA0023009219465F
:108100000C22FFF7EBFB039805B05DF804FB00BF02
:10811000F0E700BF2DE9F043054685B00E464FF06D
:1081200000083046FFF7CAFFB028044600F0B280CE
:10813000070620D500F0F003802B4DD0902B36D0D1
:10814000A02B60D0B02B74D0C02B00F08B8000F03F
:10815000F803D02B0BD100F00702013242F40022C9
:10816000052301212846FFF797FD0028D9D00920D3
:1081700005B0BDE8F0830DF10C0900231946870016
:10818000CDF800900D222846FFF7A8FBFFB2039B15
:10819000CDF80090043760064CBFDF1BFF180023AA
:1081A00019460D2228460397FFF7BCFBB9E700F0FC
:1081B0000D030D2BDBD003AF002300F00F02194697
:1081C00000972846FFF78AFB0023009719460D22E7
:1081D0002846FFF7A7FBA4E73046FFF76FFF24020E
:1081E0002043B0F5004FC2D004010023A2B21946CB
:1081F0002846FFF751FD0028B9D114F4004F18BFED
:108200004FF001088DE7C24302F007034FF47F628D
:108210001A41010702F47F624FF0000348BF42F4A5
:10822000804219462846FFF737FD00283FF479AF12
:108230009DE7B12833D0B22800F08B80B32839D025
:1082400000F0FC03B42B92D000F0070201320123AE
:1082500042F4002219462846FFF71EFD00283FF48D
:1082600060AF84E7C62842D0C7284CD000F0F8039E
:10827000C02B5BD0C82860D0C9287FF478AF3046C7
:10828000FFF71CFF020300F00F0002F47022013020
:10829000024365E7B8F1000F18D0002068E73046C8
:1082A000FFF70CFF024600283FF461AF10F0F00327
:1082B000D0D05CE73046FFF701FF010300F00F006C
:1082C00001F47021421C01230A43C3E703AC434677
:1082D0000E22414600942846FFF700FB00942846F2
:1082E00043460F224146FFF71DFB404640E730461C
:1082F000FFF7E4FE010300F00F0001F47021421CBF
:1083000003230A43A6E73046FFF7D8FE02460028BB
:108310003FF42DAF10F0F0037FF429AF042128467D
:10832000FFF7BAFC00283FF4FCAE20E700F00F0294
:108330000132032342F420228CE73046FFF7BEFED1
:1083400000F0F00200F00F031032013343EA023272
:1083500006E700230DF10C090D221946CDF8009017
:108360002846FFF7BBFA3046FFF7A8FE02064FF09B
:1083700002070CD5039B00F07F00B8400344304651
:108380000393FFF79BFE030607F10707F2D4039B55
:10839000CDF8009000F07F0403F50172BC4000238B
:1083A000144419460D2228460394FFF7BBFAB8E699
:1083B00010B5C26C84B0536803248DF80C401B02C6
:1083C00002F108040846D279019301A902948DF8BC
:1083D0000D20FFF79FFE04B010BD00BF08B5FFF7EA
:1083E00097FE806C08BD00BF08B5FFF791FEC06C1A
:1083F000C379023300EB830008BD00BF704700BFA4
:1084000010B50B4801F08CF9044678B9094A0A49BD
:108410000A4824F0A5FD0A49084824F0A1FD0949AD
:10842000064824F09DFD642024F08EFA204610BDFD
:10843000A00D00202CFA020830FA0208085C002087
:1084400036FA02085CFB02082DE9F743294CDFF8F5
:10845000C890DFF8C880284F284D4A46414620463C
:1084600024F07EFD2649204624F07AFD3946204638
:1084700024F076FD642024F067FA284601F0AAF97A
:10848000284601F081F90646284601F059F94A4686
:1084900005464146204624F063FD3046FEF73CF891
:1084A000804628468946FEF737F84B464246CDE9D6
:1084B00000011449204624F053FD39462046124C51
:1084C00024F04EFD642024F03FFA2A460221204683
:1084D00001F011F932460321204601F005F90B4B5A
:1084E0001E600B4B1D600B4B01221A7003B0BDE8E0
:1084F000F08300BF085C00205CFB0208A00D002098
:1085000051FA02085FFA0208AC0D00209C0D002011
:10851000980D0020940D00202CFA020830FA020871
:10852000014801F0F6B800BFA00D002010B51448B6
:1085300024F0CAFD1348442101F092F988B1124990
:10854000124A134824F00CFD1249114824F008FD8A
:1085500011490F4824F004FD642024F0F5F90020AF
:1085600010BD08484CF2106101F084F930B10649A1
:10857000064A074824F0F4FC0849E6E70120EFE743
:108580009C5B0020A80D002030FA02086FFA020858
:10859000085C002036FA02085CFB020875FA020843
:1085A00013B5264A2649274824F0DAFC26492548EF
:1085B00024F0D6FC2549234824F0D2FC642024F082
:1085C000C3F92349684601F003FA9DF9063013BB4D
:1085D0000098FEF715FE194A194984B2194824F08B
:1085E000BFFC2046FEF7EEFBFDF796FF02460B466A
:1085F0001448184924F0B4FC1449124824F0B0FC83
:10860000642024F0A1F922461348052102B0BDE8F8
:10861000104000F0F5BF094A09490A4824F0A0FCBF
:108620000E49084824F09CFC0849064824F098FCB0
:10863000642024F089F90022E6E700BF6FFA0208FF
:1086400030FA0208085C002091FA02085CFB02087C
:10865000A80D0020A1FA0208AC0D0020A9FA02081A
:10866000014801F0FBB800BFA80D0020F7B5044693
:10867000164A17491748184F164E24F071FC94F902
:108680000C300193B4F90A30227814490093114850
:10869000637824F065FC12490E4824F061FC6420E4
:1086A00024F052F90025237AAB4207DD636839468E
:1086B0005A5D304624F054FC0135F4E70949054879
:1086C00003B0BDE8F04024F014BC00BFBFFA0208BC
:1086D00030FA0208085C0020AE000308C5FA020860
:1086E0005CFB02085BFB020838B50C4C0C4A0D49D8
:1086F0000546204624F034FC2A460B49204624F047
:108700002FFC0A49204624F02BFC642024F01CF99D
:10871000BDE838400021012024F054BC085C002052
:10872000E9FA020830FA0208EFFA02085CFB0208D4
:1087300010B5044600F0A1FE204610BD38B5044631
:10874000C0B1254824F005FA244B1870002842D106
:10875000234A2449244824F003FC2449224824F0D5
:10876000FFFB2349204824F0FBFBBDE83840642090
:1087700024F0EAB81F4B2048197824F082FA184AEE
:1087800018490546184824F0EBFB1C4B1C4A1D49B0
:108790001548002D08BF1A4624F0E2FB1449124880
:1087A00024F0DEFB642024F0CFF80D4A0D490E487A
:1087B00024F0D6FB14490C4824F0D2FB0C490A489B
:1087C00024F0CEFB642024F0BFF821460120BDE850
:1087D000384024F0F7BB38BD6C5B0020B40D00209E
:1087E00009FB020830FA0208085C002011FB0208AD
:1087F0005CFB0208040000207B5B002004FB0208F5
:10880000FCFA02082EFB020844FB0208014824F08F
:108810000ABC00BF245B00202DE9F04782B0644809
:1088200002AF24F04BFA012841D1624A6249634801
:10883000634D24F095FB634800F029FE2B786249D4
:1088400002465E4824F08CFB60495C4824F088FBBB
:10885000642024F079F85B4800F019FE044659487A
:1088600000F017FE5A492B78097801915949097887
:10887000009102462146584824F07CF94D4A4E4961
:1088800080B14E4824F06CFB54494C4824F068FBFE
:108890004E494A4824F064FB642024F055F8BD4654
:1088A000BDE8F087454824F05BFB4D49EDE7414AC0
:1088B0004149424824F054FB424800F0E8FD494950
:1088C00000F108023D4824F04BFB40493B4824F0AE
:1088D00047FB642024F038F80021012024F072FBCB
:1088E000384800F0D4FD0F3020F007006E46ADEBA5
:1088F000000D02AC3C480822214624F09EF978B9CC
:108900002C4A2D492D4824F02BFB38492B4824F0C4
:1089100027FB2E49294824F023FB642024F014F877
:108920002848DFF8A0A0DFF8CC90DFF8908000F0B6
:10893000B0FD0546234800F0AAFD2946024604F191
:10894000080001F01BFC0025504600F0A0FD073098
:10895000854206DC625D4946404624F001FB013554
:10896000F2E72349154824F0F9FA164800F08FFD84
:1089700000F108012246C9B2174824F0AFF90D4AA8
:108980000D4978B10D4824F0EBFA14490B4824F056
:10899000E7FA0E49094824F0E3FA642023F0D4FFF3
:1089A000B5467CE7054824F0DBFA0D49EEE700BF49
:1089B0008F5B00205EFB020830FA0208085C002092
:1089C00005000020AC0D002065FB02085CFB0208DE
:1089D000AA0D0020A90D00206C5B002089FB020875
:1089E00099FB0208A5FB0208715B0020C7FB020887
:1089F0005DFB0208AE0003080121084608B524F01B
:108A0000E1FA164824F05AF9012815D1144824F047
:108A100034F988B9134A1449144824F0A1FA1449C6
:108A2000124824F09DFA1349104824F099FABDE841
:108A30000840642023F088BF0F4800F025FD0F4850
:108A400024F00DFA012102460B4800F05BFE00F015
:108A500001FDBDE80840FFF7DFBE00BF8F5B0020CF
:108A6000775B00205EFB020830FA0208085C0020F9
:108A7000DCFB02085CFB0208AC0D0020655B0020FB
:108A800010B54F4824F01AF901281AD14D4824F0A6
:108A9000E6F84D4B18704D4824F091F84C4B187087
:108AA0004C4824F0ECF84C4B4C491870474824F0E3
:108AB00088F84B49454824F094F84A49434824F043
:108AC00088F80121002024F066FA0121002024F01A
:108AD00079FA0121084624F05EFA0121084624F0C3
:108AE00071FA0121082024F056FA0121082024F00F
:108AF00069FA032306224FF4E1313B4824F096FB48
:108B000041F2883023F020FF3849374824F026FA14
:108B10003749354824F022FA3649334824F01EFA02
:108B20003349314824F01AFA00F044FC00F0CCFA42
:108B300078B9314A31492C4824F012FA30492A4890
:108B400024F00EFA2F49284824F00AFA642023F072
:108B5000FBFE0021084624F035FA00F09FFA78B9B0
:108B6000254A2649204824F0FBF927491E4824F0CD
:108B7000F7F924491C4824F0F3F9642023F0E4FEBB
:108B800000F09EFB214A22480123002124F090F9A5
:108B9000204B1A6822B100231D48194624F092F98F
:108BA000074824F08BF8044640B90146012024F020
:108BB00009FA2046BDE81040FFF71EBF10BD00BFF8
:108BC0008F5B0020745B0020A90D00206C5B0020EF
:108BD000AA0D00207B5B0020040000206D860008A9
:108BE000E98600083D870008085C0020F5FB0208C4
:108BF0000BFC020842FC020882FC020830FA020860
:108C000088FC02085CFB0208AAFC0208F98900083B
:108C1000695B0020B80D002010B5064CFF212046EE
:108C200000F01FFC2046044A0449BDE8104001F052
:108C30005DBA00BFAC0D00200000002031870008A5
:108C400030B599B01446BB490EA823F039FF002374
:108C5000CDE91433CDE91633636E012B40F0FA8170
:108C60002068B549FDF78CFA0446002840F0F281EF
:108C7000B249B34824F072F9B24911A824F0E9F8D6
:108C800011A90EA823F02EFF11A823F0D3FE0EA8E1
:108C900023F052FF0E9AAC49A94824F061F9AB4980
:108CA00011A824F0D0F8119AA949A54824F058F940
:108CB00011A823F0BFFEA74BA7491A68A0484FF49C
:108CC0007A73B2FBF3F224F04BF9A44823F0F6FFD9
:108CD000A34BA44953F820200546994824F040F9B5
:108CE000012D40F06F81A04823F0C7FF9F4BA04AA1
:108CF000A049002808BF1A46914824F031F99E483F
:108D000023F0D0FF9D49024605468D4824F028F9FE
:108D10009B4B9C4953F82520894824F021F99A4817
:108D200023F0A4FF00287ED09849854824F016F946
:108D3000082214A9964823F080FF9DF85730059328
:108D40009DF8563004939DF8553003939DF85430A8
:108D500002939DF8533001939DF852309DF85020B6
:108D60008C49009376489DF8513024F0F9F8082298
:108D700014A9894823F03DFF9DF8573005939DF8CD
:108D8000563004939DF8553003939DF85430029368
:108D90009DF8533001939DF852309DF850207F4943
:108DA000009367489DF8513024F0DAF8102214A996
:108DB0007B4823F027FF9DF85F300D939DF85E30D0
:108DC0000C939DF85D300B939DF85C300A939DF8F1
:108DD0005B3009939DF85A3008939DF859300793FA
:108DE0009DF8583006939DF8573005939DF85630FE
:108DF00004939DF8553003939DF8543002939DF8E9
:108E0000533001939DF8523000939DF850209DF807
:108E1000513064494A4824F0A3F80EA823F00AFE12
:108E2000204619B030BD6049454824F097F814A990
:108E300010225E4823F0EFFE9DF85F300D939DF801
:108E40005E300C939DF85D300B939DF85C300A9377
:108E50009DF85B3009939DF85A3008939DF859307E
:108E600007939DF8583006939DF8573005939DF869
:108E7000563004939DF8553003939DF85430029377
:108E80009DF8533001939DF852309DF85020009387
:108E900047499DF851302A4824F062F814A910225D
:108EA000444823F0D3FE9DF85F300D939DF85E306B
:108EB0000C939DF85D300B939DF85C300A939DF800
:108EC0005B3009939DF85A3008939DF85930079309
:108ED0009DF8583006939DF8573005939DF856300D
:108EE00004939DF8553003939DF8543002939DF8F8
:108EF000533001939DF852309DF8502000932E4935
:108F00009DF851300E4824F02BF814A904222B4868
:108F100023F08AFE9DF8533001939DF85230009360
:108F20009DF850209DF851302549054824F018F847
:108F300073E700BF5DFB02081C340308DEFC020877
:108F4000085C00204C5B0020EDFC0208285B002040
:108F5000FAFC0208B80D002008FD02088F5B002013
:108F6000080000201AFD0208775B0020D3FC0208ED
:108F70008E0C03082CFD02088D5B002039FD0208D1
:108F80001400002046FD0208765B002053FD020815
:108F9000715B00205DFD02086D5B002089FD020809
:108FA0006E5B0020B5FD020801FE02086F5B002029
:108FB0000AFE0208735B002057FE0208705B002067
:108FC000A3FE02082448002D2FD123F07BFE234965
:108FD0000246234823F0C4FF224823F075FE2249AD
:108FE00002461F4823F0BCFF204823F06FFE2049B3
:108FF00002461B4823F0B4FF1E4823F069FE1E49B9
:109000000246174823F0ACFF1C4823F063FE1C49BE
:109010000246134823F0A4FF1A4823F05DFE1A49C4
:1090200002460F4823F09CFFF7E623F04BFE0B4966
:1090300002460B4823F094FF144823F060FE1449C5
:109040000246074823F08CFF124823F05AFE1249CB
:109050000246E6E70224E0E6905B0020C0FE02083C
:10906000085C0020915B0020D1FE0208925B00208A
:10907000DBFE0208935B0020E5FE0208945B002003
:10908000EFFE0208955B002006FF0208985B0020B7
:1090900016FF0208995B002025FF020807B503238D
:1090A0000193054B0093054B054A0648194623F0EA
:1090B000DEFE03B05DF804FB7D91000835FF020879
:1090C0003DFF0208665B002007B503230193054BB3
:1090D0000093054B054A0648194623F0C8FE03B025
:1090E0005DF804FB418C000890FF020897FF02081E
:1090F000665B00207FB50023CDE903330593184B51
:10910000184A1B68184902931848AA238DF80C3096
:1091100023F026FF9DF80B3001939DF80A309DF84F
:1091200008201349009311489DF8093023F018FFD7
:1091300010490E4823F014FF642023F005FC0E486C
:10914000052302AA022123F0A9FE28B90A48052313
:1091500002AA022123F0A2FE012007B05DF804FB61
:10916000B80D0020AEFF020830FA0208085C0020AB
:10917000B5FF02085CFB0208675B0020536E012B01
:1091800070B50E46154642D141491068FCF7F8FF0C
:10919000044678B931463F4823F0C1FE3E4B3F4973
:1091A0001A683C484FF47A73B2FBF3F223F0D8FE0E
:1091B000204670BD3A4A3B49364823F0D1FE2A6822
:1091C0003949344823F0CCFE3849324823F0C8FEF0
:1091D000642023F0B9FB2D682846FCF7DBFF002450
:1091E000844218D02B5D303B092B12D92C4A2D49D3
:1091F000284823F0B5FE2E492648224623F0B0FE2B
:109200002A49244823F0ACFE642023F09DFB02246D
:10921000CEE70134E4E70A220021284601F054FD9C
:109220001F4A20491C4D04461A4823F099FE224645
:109230002049184823F094FE1C49164823F090FE5C
:10924000642023F081FB4FF47A70154A154944439A
:1092500010482C6023F084FE2A6817490D4823F03B
:109260007FFE12490B4823F07BFE642023F06CFB49
:109270001248002123F030FE2A6822B100230F4853
:10928000194623F01FFEFFF735FF002490E700BFCB
:109290001C340308085C0020B80D0020E8FF020819
:1092A000AEFF020830FA0208F0FF02085CFB020879
:1092B00005000308140003082B000308695B002065
:1092C00030B587B03148052302AA022123F0DCFD26
:1092D000044680B92E492F4A2F4823F041FE2F49DA
:1092E0002D4823F03DFE2E492B4823F039FE642003
:1092F00023F02AFB22E09DF80C30264A2449264818
:10930000284DAA2B1DD023F02BFE9DF80B30019386
:109310009DF80A309DF80820234900931E489DF8C7
:10932000093023F01DFE1E491B4823F019FE0024BE
:10933000642023F009FB2C60FFF7DCFE204607B019
:1093400030BD23F00DFE9DF80B3001939DF80A30DF
:109350009DF80820009315499DF809300E4823F028
:10936000FFFD0F490C4823F0FBFD642023F0ECFACD
:10937000029B084A064908482B6023F0F1FD2A6841
:109380000B49054823F0ECFDADE700BF675B00200B
:1093900030FA0208AEFF0208085C00203C00030817
:1093A0005CFB0208B80D002064000308B30003084A
:1093B000E200030808B51D4823F086FE1C491B483F
:1093C00023F096FEFFF71CF820BB1A4A1A491B48E7
:1093D00023F0C6FD1A49194823F0C2FD1949174860
:1093E00023F0BEFD642023F0AFFAFFF79FF8B0B979
:1093F000104A1149114823F0B3FD13490F4823F0D7
:10940000AFFD10490D4823F0ABFDBDE808406420D6
:1094100023F09ABA0D49094823F0A0FDE5E7BDE81D
:1094200008400B49054823F099BD00BF9C5B002014
:10943000A08601005401030830FA0208085C0020ED
:10944000590103085CFB0208860103087601030842
:10945000A301030808B5FEF7F7FFBDE80840FFF7D2
:109460009FB838B50446002508462171A57100F063
:1094700075FE65712060204638BD10B50446006851
:1094800000F074FE204610BD002343717047407900
:1094900070470068704700008E294ED8702903D8A5
:1094A000032943D80120704771391D2945D801A3EC
:1094B00053F821F0A59400083B950008A5940008F6
:1094C000A5940008A5940008A59400083B95000801
:1094D000A5940008A59400083B9500083B9500085A
:1094E0003B950008A59400083B9500083B950008B3
:1094F000A59400083B950008A5940008A5940008D1
:10950000A5940008A5940008A5940008A594000857
:10951000A59400083B9500083B9500083B95000882
:109520003B9500083B950008A5940008A1F1640054
:1095300004288CBF0020012070470020704700BF26
:10954000882918D8702906D803290FD8012994BF73
:1095500000200120704771390123C9B203FA01F1DB
:10956000064B194214BF012000207047A1F1670388
:109570005842584170470020704700BF0101A000C9
:10958000F8B504460D461E46FFF786FF10B90223C4
:10959000A371F8BD8E2D98BF174B607998BF595DA8
:1095A00094F804C094BF154B002100EB010707F1AC
:1095B000010794BF33F815300B46674503DB0123E1
:1095C000A3710020E5E773432668471C6771325496
:1095D00062792068561C66718554002201326079D8
:1095E000D5B28D42084404D82568801A2B541B0A32
:1095F000F4E7C0B26071CCE7B3010308420203088C
:1096000008B513460A466521FFF7BAFF08BD0000FA
:109610002DE9F84F04460E4690461D46FFF73CFFE5
:1096200018B90223A371BDE8F88F8E2E98BF2C4B7A
:1096300094F805909CBF9F5D2A4B227994BF33F824
:1096400016B0002709EB070303F1010388BFBB46EF
:10965000934203DB0123A3710020E4E700212846A5
:10966000FDF7A6FD0021B0F1000A284618BF4FF013
:10967000010AFDF79DFD08B105F100455846FDF7CB
:10968000A1FB2946FDF7F6FBFDF7BAFD314605467D
:109690002046FFF755FF40B1BAF1000F05D0FA00A0
:1096A00001239340581E05405D1B236809F1010208
:1096B000627103F8098063792268591C6171D6547C
:1096C000002201326379D1B2B9423B4404D8216807
:1096D0009B1ACD542D0AF4E7D8B26071A3E700BFFE
:1096E000B30103084202030808B513460A4667217E
:1096F000FFF78EFF08BD08B513460A466821FFF73D
:1097000087FF08BD08B513460A467421FFF780FF9E
:1097100008BD002242808280C28002707047000033
:1097200010B5064C7021204623F01EFD0121204675
:1097300023F026FDB0FA80F0400910BD9C5B0020AC
:1097400008B54088FDF73EFB0349FDF747FC034998
:10975000FDF790FB08BD00BF00FF7F470000C84237
:1097600008B5FDF72FFB0549FDF738FC0449FDF767
:1097700081FB0449FDF774FA08BD00BF00FF7F4775
:1097800000002F43000034428088FFF7E9BF00004B
:1097900038B50B4C0D462046702123F0E5FC290A14
:1097A000204623F079FCE9B2204623F075FC012124
:1097B000204623F0E5FCB0FA80F0400938BD00BF38
:1097C0009C5B002043F21751FFF7E2BF4BF2980178
:1097D000FFF7DEBF2DE9F8430546FFF7F3FF28B991
:1097E00000246C80AC802046BDE8F883032023F081
:1097F000ABF847F6A2412846FFF7CAFF0446002807
:10980000EED006227021124823F09CFC104823F071
:109810002DFC80460E4823F029FC06460C4823F018
:1098200025FC0B4823F022FC8146094823F01EFC4E
:109830000746F6B20648FFB223F018FC47EA0927AC
:1098400046EA0820A8806F802846FFF7BFFFCAE7D6
:109850009C5B00200368C9B21B6818477047000072
:1098600008B50170024823F02FFC002008BD00BF9E
:109870009C5B002038B50E4C8DB20178204623F059
:1098800067FC01212046FFF7E5FF290A2046FFF784
:10989000E1FFE9B22046FFF7DDFF0121204623F07A
:1098A0006FFCC0EB4013C0EB8300400040B238BDFA
:1098B0009C5B002038B50A4C0D460178204623F009
:1098C00047FC29462046FFF7C5FF0121204623F02B
:1098D00057FCC0EB4013C0EB8300400040B238BDE2
:1098E0009C5B002037B50C46022201780F4823F01C
:1098F00026FCFB250D4823F0AFFB012807DC0A20DE
:1099000023F022F8013DF5D16FF063000CE0022254
:10991000064801A923F071FB9DF804209DF805304D
:1099200043EA02232380002003B030BD9C5B00206B
:109930002DE9F0430D4685B0044611462846FFF751
:10994000B9FF00283CD1284601A9FFF7CBFF054607
:10995000A0BB9DF80500BDF80430ADF80C3000093F
:10996000FCF7B8FD02460B4600204FF0804102F0A4
:109970005DFB8046BDF80400C0F30B008946FCF790
:10998000B9FD11A3D3E9002306460F4640464946D8
:10999000FCF71AFE02460B4630463946FCF714FE29
:1099A000FDF70AF902908DF80E5004AB13E903009D
:1099B00084E80300204605B0BDE8F0830020F1E70D
:1099C00000232360A071F5E77B14AE47E17A843F62
:1099D00010B500220446FFF7ABFF204610BD03F090
:1099E00067BE03F06ABE704770B5002386B0CDE94C
:1099F00004334FF0B0420F4DD16C41F00201D164FD
:109A0000D26C039302F002024FF48056009201A937
:109A10002846CDE90163009A0EF0F0FB3146284656
:109A20000EF00CFD3146044628460EF093FC20460D
:109A300006B070BD000400480D2070474FF0B043E1
:109A400082B0DA6C0243DA64DB6C18400190019B4F
:109A500002B070472DE9F04186B01422002101A820
:109A600000F09AFB0220FFF7E9FF144D144F042089
:109A7000FFF7E4FF4FF4807601230024CDE9016372
:109A800001A903232846CDE903434FF400580EF003
:109A9000B5FB01A93846CDF804800EF0AFFB224695
:109AA000414638460EF0D0FC2846224631460EF09C
:109AB000CBFC204606B0BDE8F08100BF00040048A2
:109AC00000080048032810B50ED8012810D868B93E
:109AD00002460B484FF480710EF0B6FC0022094894
:109AE0004FF400510EF0B0FC002010BD0122F0E751
:109AF000002203484FF480710EF0A6FC0122EEE72D
:109B00000004004800080048022070470020704709
:109B10000120704708B5022022F02DFF08BD10B5C6
:109B20009AB04822002108A800F036FB1822002134
:109B300002A800F031FB0FF043FB4FF0B0420024CD
:109B4000D2F8903023F01803C2F89030D2F80034E5
:109B500023F4C06343F40073C2F80034D2F8003435
:109B6000119403F4C0630193019B2623089381237E
:109B70000B93012310934FF480730C9340230D93A8
:109B800008A8B023CDE912340FF050FC08B103F05F
:109B9000B7FF4F23022102A8CDE90234CDE90444E6
:109BA000CDE906440FF0E2FE08B103F0A9FF1AB0B8
:109BB00010BD000013B50378082B16D8DFE803F0BA
:109BC000179DA215AAAA0515AE00047920460CF02F
:109BD00013FF012802D120460AF076FF20460AF042
:109BE00071FD002120460CF00FFF02B010BD0020D7
:109BF0000CF002FF022831D101200CF0FDFE0228FA
:109C000004D0012022F0D2FB002843DC02200CF01B
:109C1000F3FE0228E9D0022022F0C8FB0028E4DD90
:109C2000012201A9022022F089FA02200CF0E4FEB0
:109C3000002850D00128EED19DF8041002200AF02F
:109C400059FEE8E7012201A9002022F077FA00205E
:109C50000CF0D2FE044638B1012815D0002022F0C5
:109C6000A5FB0028EEDCC7E722F07CFB20B99DF8BD
:109C700004100AF093FCF1E70128EFD19DF80410DD
:109C8000204622F0C9FAE9E79DF8041000200AF006
:109C900031FEE3E7012201A9104622F04FFA01202C
:109CA0000CF0AAFE30B10128ABD19DF804100AF0E7
:109CB00021FEA6E7012022F055FB28B99DF80410EB
:109CC00001200AF06BFC9CE701289AD19DF8041052
:109CD00022F0A2FA95E7022022F044FB28B99DF871
:109CE000041002200AF05AFC95E7012893D19DF850
:109CF0000410022022F090FA8DE714F06FFE05F0B8
:109D000055FF72E7074B1B68002B3FF46EAF4068AE
:109D100098476AE7406822F0DFFC66E7406822F077
:109D2000AFFD62E7EC62002030B52E4B2E4A9A6000
:109D300085B00DF079FBFFF7F2FE4FF0B0430B203A
:109D40009A6C42F004029A649A6C02F00402039244
:109D5000039A9A6C42F001029A649B6C002203F011
:109D6000010311460293029B0DF0C6FF0B200DF07C
:109D7000F5FF22F093FC0CF011FE0CF0D1FE002454
:109D800001460546234603220120CDE9004422F086
:109D90000FF92346032229460220CDE9004422F090
:109DA00007F904F039FD05F029FFE5B228460CF06B
:109DB00023FE10B928460AF085FC0134032CF4D1A7
:109DC0000024E0B20CF018FE012802D120460AF06F
:109DD00057FE0134032CF4D105B0BDE8304022F029
:109DE0007DBC00BF00ED00E00060000822F084BCF4
:109DF000F7B5FFF799FF4FF0B0432E4EDA6C2E4CBB
:109E000042F00202DA64DB6C03F002030193019B6F
:109E100007F0BCF9294B341B1427474300251C4489
:109E2000BD4223D320F0DCFBFFF7DEFD98B32448CE
:109E300004F059FA234B24481A68244B196804F09B
:109E400052FA234822F03EF904F0AEFD012824D056
:109E5000022824D010B91F4822F034F91E4C22F0F9
:109E60004BFC2378EBB920F0BDFBF8E76A460421F0
:109E7000601922F08DFB69463246042312F801CBAB
:109E800011F8010B844518BF02F8010C013BF5D114
:109E900004350436C4E71148CAE71148DCE7114825
:109EA000DAE70CF0EFFD0028D9D0002022F0A8FC62
:109EB000D5E700BF7803002000000020303C0308F5
:109EC00060030308B000002076030308C8000020E8
:109ED000860303089A030308BC0D00206B030308E4
:109EE000A6030308B1030308054808B50823036067
:109EF00010F030F918B1BDE8084003F001BE08BD0C
:109F0000505D00204FF0B04307B55A6E42F0010299
:109F10005A665B6E002203F0010301931146322062
:109F2000019B0DF0E9FE322003B05DF804EB0DF06B
:109F300015BF0000024B9868024BC0431860704781
:109F400000280040C00D0020014B1868704700BF7A
:109F5000C00D0020034B044A9B681068DB43181AAD
:109F6000704700BF00280040C00D0020034B187848
:109F700010B1034B9868C043704700BFBD0D00206F
:109F8000002800400320704708B501464FF47A725C
:109F900000238002890DFDF753F908BD4FF47A7252
:109FA000A0FB0223900A40EA8350704710B5074B8C
:109FB000074C0122DA654FF4807120460FF0D4FD82
:109FC0004FF0FF332363002010BD00BF0028004086
:109FD000D05D002002460021014810F000B800BF0B
:109FE000D05D00200246012101480FF0F8BF00BFFC
:109FF000D05D002010B58CB02C220021044601A8B1
:10A0000000F0CAF8FFF7D2FF0C4B18680023044495
:10A01000089306934FF00053E443079308480294D3
:10A020004FF48073012201A90B930FF0B3FE08B126
:10A0300003F066FD00200CB010BD00BFC00D002075
:10A04000D05D00200C4B70B59C68064602210B4881
:10A050000FF0CCFFE44300221219C2F309044FF4BD
:10A060007A71A4FB014540F10003A40A900A3480F0
:10A0700040EA835070BD00BF00280040D05D002042
:10A08000014800210FF0B2BFD05D0020014801213E
:10A090000FF0ACBFD05D0020F8B5114E3578E5B9B2
:10A0A000104C2A4629464FF0FF372846276303F015
:10A0B0005BFAFFF77BFF4FF4807120460FF054FDF1
:10A0C000204627630FF046FF2A46022120460FF064
:10A0D00086FFFFF72FFF012333700020F8BD00BF7C
:10A0E000BD0D0020D05D002013F038BA0B460146AC
:10A0F000184600F001B8000010B5044604481346A5
:10A1000020B10A4602202146AFF3008010BD00BFF7
:10A110000000000070B50D4D0D4C641BA41000260E
:10A12000A64209D10B4D0C4C25F0DAFB641BA410A0
:10A130000026A64205D170BD55F8043B984701366C
:10A14000EEE755F8043B98470136F2E7083C030870
:10A15000083C0308083C0308243C0308024B014662
:10A16000186800F06FB800BFCC000020024B014619
:10A17000186800F019B800BFCC0000200A449142D2
:10A1800000F1FF3300D1704710B511F8014B03F80F
:10A19000014F9142F9D110BD02440346934200D1D0
:10A1A000704703F8011BF9E738B50546002945D08B
:10A1B00051F8043C0C1F002BB8BFE41801F0F2FB6F
:10A1C0001F4A1368104633B9636014602846BDE81F
:10A1D000384001F0EDBBA3420BD9216862189342CD
:10A1E00004BF1A685B68636004BF52182260046091
:10A1F000ECE71A465B680BB1A342FAD91168501814
:10A20000A0420BD120680144501883421160DDD177
:10A2100018685B68536001441160D7E702D90C23CA
:10A220002B60D3E7206821188B4204BF19685B6854
:10A23000636004BF091821605460C7E738BD00BFE0
:10A24000C40D0020F8B5CD1C25F0030508350C2DF4
:10A2500038BF0C25002D064601DBA94203D90C238B
:10A2600033600020F8BD01F09DFB21490A681446C7
:10A270009CB9204F3B6823B92146304600F098FC3A
:10A2800038602946304600F093FC431C23D10C2350
:10A290003360304601F08CFBE3E723685B1B17D487
:10A2A0000B2B03D923601C44256004E06368A242A1
:10A2B0000CBF0B605360304601F07AFB04F10B00D9
:10A2C000231D20F00700C21ACCD01B1AA350C9E7E7
:10A2D00022466468CCE7C41C24F00304A042E3D007
:10A2E000211A304600F064FC0130DDD1CFE700BF19
:10A2F000C40D0020C80D00202DE9F04788B0002BC8
:10A300001F461446B8BF03F10043129A109DDDF8B2
:10A310004CA0B6BF1F4600232D231370149B23F0BF
:10A320002008B8F1460F05D0B8F1450F00D101352E
:10A33000022300E0032307AA049206AACDE902A2A1
:10A34000CDE9003522463B4600F056FDB8F1470FF7
:10A35000064602D1119BDB0722D5B8F1460F06EB6A
:10A36000050910D13378302B0AD100220023204672
:10A370003946FCF791FB18B9C5F10105CAF8005040
:10A38000DAF8003099440022002320463946FCF7D1
:10A3900083FB08B1CDF81C903022079B4B4507D3B7
:10A3A000079B159A9B1B3046136008B0BDE8F087E9
:10A3B000591C07911A70F0E7F7B503460029B8BF9A
:10A3C000494203F8022BB4BF2D222B2209294270E7
:10A3D0002ADD0DF10704A4460A27A6460A4691FB8A
:10A3E000F7F607FB16153035632A04F1FF340EF833
:10A3F000015C3146F1DC3031AEF1020504F8011C9C
:10A40000441C294661450AD30DF10902A2EB0E0254
:10A41000654588BF00221344181A03B0F0BD11F837
:10A42000012B04F8012FEDE7302330318370C17028
:10A43000031DF1E72DE9F04F91B00C46DDF868807F
:10A4400016461F46054601F0A9FA03680993184607
:10A45000FBF7A0FE00230E93D8F800300A900733D4
:10A4600023F0070303F1080294F81890D4F800B021
:10A47000C8F80020D3E90023C4E91223D4E9128AE2
:10A480002AF000430B930B999C4B4FF0FF32404650
:10A49000FCF734FB70BB994B0B994FF0FF324046F1
:10A4A000FCF70EFB30BB0022002340465146FCF770
:10A4B000FDFA10B12D2384F84330914B9148B9F146
:10A4C000470F94BF98468046032323612BF0040373
:10A4D00023604FF0000A009733460FAA2146284612
:10A4E00000F0D2F9013040F08F804FF0FF3011B012
:10A4F000BDE8F08F4246534640465146FCF7FEFA0F
:10A5000040B1BAF1000FBCBF2D2384F843307E4820
:10A510007E4BD4E763685A1C09F0DF0142D1062361
:10A520006360002206920EAACDE904920DAA4BF4B4
:10A53000806303920DF13302CDE901322360636839
:10A5400000934246534628460B91FFF7D5FE0B99E0
:10A55000472980460D9908D1C81C02DB63689942DF
:10A5600040DDA9F102095FFA89F9B9F1650F1FD839
:10A5700001394A4604F150000D91FFF71DFF0E9A74
:10A580001318012A8246236102DC2268D20701D512
:10A59000013323619DF83330002B9CD02D2384F8A8
:10A5A000433098E74729BCD1002BBAD10123B7E744
:10A5B000B9F1660F18D1002963680BDD216113B969
:10A5C0002268D00702D501330B442361A1654FF007
:10A5D000000ADFE713B92268D20701D50233F4E796
:10A5E0000123F2E74FF067090E9B994205DB2368D0
:10A5F0002161D807EAD54B1CE7E70029D4BFC1F198
:10A60000020201221344E0E723685A0507D42369B4
:10A61000424631462846B84701302BD165E7B9F1AB
:10A62000650F40F2DC80D4E9120100220023FCF720
:10A6300033FA002833D0364A012331462846B8473A
:10A6400001303FF452AFDDE90D239A4202DB23686B
:10A65000D8070FD5DDE9092331462846B847013030
:10A660003FF443AF4FF0000804F11A090E9B013B81
:10A67000434509DC23689B0700F10181E0680F9BDB
:10A680009842B8BF184632E701234A463146284669
:10A69000B84701303FF429AF08F10108E6E70D9B08
:10A6A000002B37DC1A4A012331462846B8470130CF
:10A6B0003FF41BAFDDE90D23134302D12368D90713
:10A6C000D8D5DDE9092331462846B84701303FF4A3
:10A6D0000CAF4FF0000904F11A0A0D9B5B424B4589
:10A6E00001DC0E9B94E70123524631462846B847C9
:10A6F00001303FF4FAAE09F10109EEE7FFFFEF7F09
:10A70000DE040308E2040308EA040308E60403087D
:10A71000242603080E9AA36D9A42A8BF1A46002A5F
:10A72000914637DC4FF0000B29EAE97904F11A026F
:10A73000D4F858A0AAEB09035B4533DCDDE90D230F
:10A740009A423BDB2368DA0738D40E9A0D99A2EBC4
:10A750000A03A2EB01099945A8BF9946B9F1000F78
:10A7600034DC4FF0000829EAE97904F11A0ADDE93E
:10A770000D239B1AA3EB090343457FF77BAF01230E
:10A78000524631462846B84701303FF4AEAE08F194
:10A790000108ECE71346314642462846B8470130E7
:10A7A000C0D1A2E60123314628460B92B8470130BA
:10A7B0003FF49BAE0B9A0BF1010BB9E7DDE90923DE
:10A7C00031462846B8470130BFD18EE64B4608EBEC
:10A7D0000A0231462846B8470130C2D185E60E9AB2
:10A7E000012A01DCDB0737D50123424631462846E2
:10A7F000B84701303FF479AEDDE9092331462846F8
:10A80000B84701303FF471AED4E9120100220023B1
:10A81000FCF742F9D8B90E9B08F10102013B314621
:10A820002846B84701300ED15FE601234A4631463B
:10A830002846B84701303FF458AE08F101080E9B96
:10A84000013B4345F1DC534604F15002E1E64FF091
:10A85000000804F11A09F2E701234246DFE7012369
:10A860004A4631462846B84701303FF43EAE08F12B
:10A870000108E3680F995B1A4345F0DCFEE64FF0F0
:10A88000000804F11909F4E72DE9F0471646994646
:10A890008A680B69DDF820809342B8BF13463360A5
:10A8A00091F8432007460C460AB101333360236810
:10A8B000990642BF336802333360256815F00605F8
:10A8C00006D104F1190AE36832689B1AAB4226DC10
:10A8D00094F84320131E226818BF012392062BD43C
:10A8E00004F1430249463846C04701301ED0236870
:10A8F000E568326803F00603042B08BFAD1AA368AD
:10A9000022690CBF25EAE57500259342C4BF9B1A56
:10A91000ED1800261A34B5421AD1002008E00123B0
:10A92000524649463846C047013003D14FF0FF3008
:10A93000BDE8F0870135C6E7E1185A1C302081F8E0
:10A940004300224494F8451082F843100233C7E7CD
:10A950000123224649463846C0470130E6D0013639
:10A96000D9E700002DE9FF470C469146277E0C9958
:10A97000782F80469A4604F1430207D8622F0AD8FE
:10A98000002F00F0D880582F00F0A38004F1420679
:10A9900084F842703AE0A7F16303152BF6D801A0C2
:10A9A00050F823F0FDA9000811AA00088DA900089D
:10A9B0008DA900088DA900088DA9000811AA00081A
:10A9C0008DA900088DA900088DA900088DA900088F
:10A9D0001DAB000841AA0008FFAA00088DA90008C5
:10A9E0008DA900083FAB00088DA9000841AA000806
:10A9F0008DA900088DA9000807AB00080B681A1D77
:10AA00001B680A6004F1420684F842300123A3E087
:10AA1000256808682E0600F104030AD505680B6056
:10AA2000002D03DA2D236D4284F843305E480A235B
:10AA300019E015F0400F05680B6018BF2DB2EFE765
:10AA40000B682568181D0860280601D51D6802E0FE
:10AA50006906FBD51D8854486F2F0CBF08230A23B5
:10AA6000002184F843106668A660002EA2BF21680A
:10AA700021F0040121600DB9002E4DD01646B5FB22
:10AA8000F3F103FB1157C75D06F8017D2F46BB426A
:10AA90000D46F4D9082B0BD12368DF0708D52369AD
:10AAA00061689942DEBF302306F8013C06F1FF36AB
:10AAB000921B2261CDF800A04B4603AA21464046D6
:10AAC000FFF7E2FE01304CD14FF0FF3004B0BDE89B
:10AAD000F087354884F8457023680E681F0656F8DD
:10AAE000045B0E6014D5D90744BF43F020032360F4
:10AAF0001DB9236823F0200323601023B0E72368E7
:10AB000043F0200323607823284884F84530E3E7A6
:10AB10005E0648BFADB2E6E71646BBE70B6826689F
:10AB200060691D1D0D6035061B6801D5186002E0C7
:10AB30007106FBD51880002323611646BAE70B681F
:10AB40001A1D0A601E68626800213046FBF730FB60
:10AB500008B1801B606063682361002384F8433080
:10AB6000A8E72369324649464046D0470130ABD07A
:10AB700023689B0713D4E068039B9842B8BF18462C
:10AB8000A4E70123324649464046D04701309BD0D6
:10AB90000135E36803995B1AAB42F2DCEBE7002571
:10ABA00004F11906F5E700BFEE040308FF040308EB
:10ABB00038B5064D0023044608462B6002F036FBEC
:10ABC000431C02D12B6803B1236038BD5C5D0020BB
:10ABD0002DE9F0433B4E86468C4660461CF8014BFF
:10ABE000A55D15F00805F8D12D2C34D19CF8004056
:10ABF0004FF0010800F1020C002B5ED0102B0CD19D
:10AC0000302C0AD19CF8000000F0DF0058284FD10A
:10AC10009CF8014010230CF1020C4FF0FF37002587
:10AC2000B7FBF3F703FB07F96FEA09092846A4F11C
:10AC30003006092E18D83446A34224DD002D1FDB30
:10AC400087421DD301D1A1451ADB00FB034001253A
:10AC50001CF8014BEBE72B2C08BF9CF80040A846E2
:10AC600008BF00F1020CC7E7A4F14106192E01D874
:10AC7000373CE1E7A4F16106192E04D8573CDBE725
:10AC80004FF0FF35E4E7002D07DA2223CEF800303D
:10AC90004FF0FF3042B9BDE8F083B8F1000F00D0AB
:10ACA0004042002AF7D00DB10CF1FF311160F2E7FC
:10ACB0003024002BB1D10823AFE7302CA2D00A23D7
:10ACC000ABE700BF1105030813460A4601460248D8
:10ACD0000068FFF77DBF00BFCC0000202DE9F74FD3
:10ACE00003690C69A3420746C0F28180013C01F16F
:10ACF000140800F1140505EB8403019358F824307F
:10AD000055F8242001339A424FEA840B08EB84095A
:10AD1000B2FBF3F631D34FF0000E4046AC46F2469C
:10AD200050F8042B93B206FB03E34FEA134E9BB299
:10AD3000AAEB0303120CDCF800A006FB02E213FAF4
:10AD40008AF34FEA124E1FFA82FADCF80020CAEBAF
:10AD5000124202EB23429BB243EA024381454CF884
:10AD6000043B4FEA224ADBD255F80B302BB9019B4A
:10AD7000043B9D421A462ED33C61384601F047F809
:10AD8000002824DB013628464FF0000C58F8042B2D
:10AD9000D0F800E093B2ACEB0303120C13FA8EF37D
:10ADA000C2EB1E4202EB23429BB243EA0243C1457F
:10ADB00040F8043B4FEA224CE8D255F8242005EB3A
:10ADC000840322B9043B9D421A460AD33C613046B3
:10ADD00003B0BDE8F08F1268043B002ACCD1013CDF
:10ADE000C7E71268043B002AF0D1013CEBE70020E2
:10ADF000EEE70000000000002DE9F04F446A99B032
:10AE000016461F46CDE90467DDF8948005463CB937
:10AE10001020FFF7A3F9C0E9014468620460C46030
:10AE20006B6A196851B15A684A60012393408B607C
:10AE3000284600F0F7FD6B6A00221A603B1EB9BF7E
:10AE400023F0004305930023C8F80030DDF8149088
:10AE5000A74BBCBF0122C8F8002033EA090319D16F
:10AE6000249A42F20F731360C9F31303334300F0C3
:10AE70006D85269B53B99F4B23E09F4B039308336B
:10AE8000269A1360039819B0BDE8F08F994B03938D
:10AE90000333F5E7DDE90434CDE90C34DDE90C01D9
:10AEA00000220023FBF7F8FD804660B1249A0123BD
:10AEB0001360269B002B00F04685904B269A13606A
:10AEC000013B0393DEE716AB019317AB00932846D3
:10AED000DDE90C2301F02CF8C9F30A548346002C59
:10AEE0007ED00D9BCDF84C80C3F31303DDE90C013C
:10AEF00043F07F5141F44011A4F2FF34804B002213
:10AF0000FBF7AAF974A3D3E90023FBF75DFB74A355
:10AF1000D3E90023FBF7A2F9064620460F46FBF7CC
:10AF2000E9FA71A3D3E90023FBF74EFB02460B4677
:10AF300030463946FBF792F906460F46FBF7F4FD1B
:10AF400000228246002330463946FBF7AFFD48B168
:10AF50005046FBF7CFFA32463B46FBF79DFD08B95A
:10AF60000AF1FF3ABAF1160F57D8664B03EBCA0342
:10AF7000D3E90023DDE90C01FBF798FD00284ED052
:10AF80000AF1FF3A00230F93169B1C1B631E0993C3
:10AF900045BFC4F101030693002300234CBF09936E
:10AFA0000693BAF1000F3CDB099BCDF838A053445F
:10AFB000099300230A93229B092B00F2B580052BED
:10AFC000C4BF043B2293229BA3F10203CCBF002405
:10AFD0000124032B00F2B480DFE803F02D987AA45B
:10AFE000DDE916431C4404F23243202BC3BFC3F1F6
:10AFF000400304F2124009FA03F3C3F12003C6BF71
:10B0000026FA00F0184306FA03F0FBF763FA01236F
:10B01000A1F1F871013C139370E70123B3E70F909E
:10B02000B2E7069BA3EB0A030693CAF100030A9357
:10B0300000230E93BFE700230B93239B002B00F309
:10B0400082804FF00109CDF820904B46CDF88C90CE
:10B050006E6A00227260042202F114009842716844
:10B0600077D9284600F0AAFC6B6A30601B6803930E
:10B07000089B0E2B00F2EE80002C00F0EB80BAF162
:10B08000000F7ADD1F4A0AF00F0302EBC303D3E976
:10B0900000341AF4807FCDE910344FEA2A145CD0D2
:10B0A000194BDDE90C01D3E90823FBF7B7FBCDE928
:10B0B000040104F00F040327134E002C4FD1DDE9E7
:10B0C0001023DDE90401FBF7A9FBCDE904016EE0E3
:10B0D0000123B1E7AFF3008061436F63A787D23FDD
:10B0E000B3C8608B288AC63FFB799F501344D33F77
:10B0F0000000F07F1A06030811060308252603083E
:10B100000000F83F480603082006030800230B93BD
:10B11000239B0AEB030909F10103012B0893B8BF34
:10B12000012395E70123F2E70124002322930B94E6
:10B130004FF0FF390022CDF820901223239287E7A9
:10B1400001230B93F4E7DDF88C90CDF820904B466B
:10B150007EE70131716052007EE70227ACE7E1072C
:10B1600008D5DDE91001D6E90023FBF72DFACDE97A
:10B1700010010137641008369FE700F0A580CAF17E
:10B180000004A44BA44E04F00F0203EBC203D3E966
:10B190000023DDE90C01FBF717FACDE904012411C6
:10B1A00000230227002C40F08480002B8DD10F9BC0
:10B1B000002B00F08B80DDE90434CDE91034DDE9AB
:10B1C0001001964B0022FBF771FC00287ED0089BF3
:10B1D000002B7BD0B9F1000F38DDDDE91001904B79
:10B1E0000022FBF7F1F9CDE904010AF1FF3801373C
:10B1F0004C463846FBF77EF9DDE90423FBF7E4F91A
:10B20000884B0022FBF72AF8A1F15076CDE9100116
:10B210001196002C5DD1DDE90401834B0022FBF780
:10B220001BF802460B46CDE90423109A3346FBF780
:10B230005BFC002840F09782DDE90401109A06F1DA
:10B240000043FBF733FC002840F08B82DDE90C342F
:10B25000CDE90434179B002BC0F25181BAF10E0FD7
:10B2600000F34D816B4B03EBCA03D3E90034CDE906
:10B270000634239B002B80F2DB80089B002B00F31D
:10B28000D78040F06D82684B0022DDE90601FBF7B4
:10B290009BF9DDE90423FBF71DFC089C26460028EA
:10B2A00040F04382039F312307F8013B0AF1010A72
:10B2B0003FE2E20705D5D6E90023FBF785F9013720
:10B2C0000123641008366DE7022770E7089CD0461A
:10B2D0008FE703994F4B214412910B9903EBC40361
:10B2E000DDE9106753E90223002946D04F490020C9
:10B2F000FBF794FA3B463246FAF7AEFFCDE9100170
:10B30000039FDDE90401FBF70FFC0446FBF7F2F8AD
:10B3100002460B46DDE90401FAF79EFF303402468F
:10B320000B46CDE9042307F8014BDDE91023FBF7B9
:10B33000BDFB002865D1DDE9042338490020FAF778
:10B340008BFFDDE91023FBF7B1FB002840F0B6804E
:10B35000129B9F423FF47AAFDDE91001304B00228F
:10B36000FBF732F92E4BCDE910010022DDE9040193
:10B37000FBF72AF9CDE90401C3E730463946FBF76C
:10B3800023F9CDE91001129B039C1493DDE904011C
:10B39000FBF7CAFB1590FBF7ADF802460B46DDE95B
:10B3A0000401FAF759FF159B303304F8013B129B57
:10B3B0009C4206460F464FF0000224D11B4BDDE9AC
:10B3C0001001FAF74BFF02460B4630463946FBF7B1
:10B3D0008BFB002871D1DDE9102314490020FAF716
:10B3E0003BFF02460B4630463946FBF75FFB002821
:10B3F0003FF42CAF149F7B1E149317F8013C302BA5
:10B40000F8D0C24649E0064BFBF7DEF8CDE904016F
:10B41000BCE700BF48060308200603080000F03F11
:10B420000000244000001C40000014400000E03FE9
:10B43000DDE90489039FDDE9062340464946FBF721
:10B44000EDF9FBF771FB0446FBF754F8DDE9062341
:10B45000FBF7BAF804F130060B460246494640466F
:10B46000FAF7FAFE07F8016B039E089BBE1BB34276
:10B4700038D102460B46FAF7F1FEDDE90623804695
:10B480008946FBF731FB58BBDDE9062340464946B8
:10B49000FBF702FB08B1E10722D42846594600F029
:10B4A000C1FA00233B70249B0AF101001860269B1F
:10B4B000002B3FF4E7AC1F60E4E427463B461F4601
:10B4C00013F8012D392A07D1039A9A42F7D103992B
:10B4D000302208F101080A701A7801321A7090E7D8
:10B4E000D046EBE7A14B0022FBF76EF800220023C9
:10B4F00080468946FBF7D0FA00289CD0CDE70B9A0E
:10B50000002A00F0CD80229A012A00F3AF80139A1E
:10B51000002A00F0A78003F233430A9C069F069A94
:10B520001A440692099A01211A442846099200F009
:10B530001CFB0646002F0CDD099B002B09DDBB42DE
:10B54000069AA8BF3B46D21A0692099AFF1AD31A46
:10B5500009930A9BF3B10B9B002B00F0A580002CF4
:10B5600010DD31462246284600F0A4FB5A4601462B
:10B570000646284600F002FB59468046284600F061
:10B5800051FAC3460A9B1A1B04D05946284600F0BC
:10B5900091FB83460121284600F0E7FA0E9B002B21
:10B5A000044640F383801A460146284600F082FB99
:10B5B000229B012B04467CDD4FF00008236904EB3D
:10B5C0008303186900F083FAC0F12000099B184436
:10B5D00010F01F0000F08E80C0F12003042B40F318
:10B5E0008780C0F11C00069B03440693099B03441B
:10B5F00007440993069B002B05DD59461A46284649
:10B6000000F0A6FB8346099B002B05DD21461A4668
:10B61000284600F09DFB04460F9B002B6CD0214672
:10B62000584600F0F4FB002866DA002359460A2247
:10B63000284600F00EFA0B9B0AF1FF3A8346002BD6
:10B6400000F08B81314600230A22284600F001FADF
:10B65000B9F1000F064600F39180229B022B40F3C4
:10B660008D8051E0169BC3F1360356E7089B5C1EA4
:10B670000A9BA342BFBF0A9B0A94E21A0E9BB6BF65
:10B680009B181C1B0E93089BB8BF0024002BB9BF4E
:10B69000069B089A069F089BBCBF9F1A00233EE7A3
:10B6A0000A9C069F0B9E45E70A9A6EE7229B012B98
:10B6B00019DC049BBBB9059BC3F313039BB9059B22
:10B6C00023F000431B0D1B0583B1069B013306933A
:10B6D000099B013309934FF001080E9B002B7FF467
:10B6E0006DAF012072E74FF00008F6E79846F4E7E7
:10B6F00080D018461C3076E7089B002B38DC229B54
:10B70000022B35DDDDF82090B9F1000F0DD1214677
:10B710004B460522284600F09CF90146044658464F
:10B7200000F075FB00283FF7BDAD239B039F6FEA38
:10B73000030A4FF000082146284600F073F9002E56
:10B740003FF4ABAEB8F1000F05D0B04503D0414691
:10B75000284600F067F93146284600F063F99CE678
:10B7600000242646E1E7C24626469BE50000244029
:10B770000B9BDDF82090002B00F0F680002F05DDFC
:10B7800031463A46284600F0E3FA0646B8F1000F83
:10B7900055D07168284600F011F932690232074627
:10B7A000920006F10C010C30FEF7E8FC012239464C
:10B7B000284600F0CDFA039B01330893039B4B44CA
:10B7C0000A93049B03F00103B04609930646089BC5
:10B7D0002146013B58460493FFF780FA0346303375
:10B7E0000690414658460B9300F011FB32468146C5
:10B7F0002146284600F026FBC2680B9B074602BB89
:10B800000146584600F003FB0B9B0246394628468A
:10B81000CDE90B3200F006F9229B0C9A089F43EA0F
:10B820000201099B0B430B9B0DD1392B29D0B9F198
:10B83000000F01DD069B3133049A13707BE730461D
:10B84000B9E70122E2E7B9F1000F06DB229941EAEC
:10B850000909099959EA010120D1002AECDD59466C
:10B8600001222846089300F073FA2146834600F02F
:10B87000CEFA0028089B02DCDED1DA07DCD5392BB2
:10B88000D8D1049A392313703B461F46013B17F861
:10B89000012C392A50D001321A704CE7002A03DDFE
:10B8A000392BEED00133C7E7089A0A9902F8013C18
:10B8B0008A422AD0594600230A22284600F0C9F8B5
:10B8C000B04583464FF000034FF00A024146284638
:10B8D00007D100F0BEF880460646089B0133089366
:10B8E00075E700F0B6F83146804600230A22284664
:10B8F00000F0AFF80646F0E7B9F1000F039ACCBFAD
:10B900004F46012717444FF00008594601222846A8
:10B91000089300F01DFA2146834600F078FA0028CB
:10B92000B2DC02D1089BDB07AED43B461F4613F8BE
:10B93000012D302AFAD0FEE6039A9A42A5D10AF1E7
:10B94000010A312379E7134BFFF7BBBA269B002B83
:10B950007FF493AA104BFFF7B4BAB9F1000F03DCE0
:10B96000229B022B3FF7D0AE039F21465846FFF79C
:10B97000B5F900F1300307F8013B039ABA1A914573
:10B98000BADD594600230A22284600F062F88346B1
:10B99000EBE700BF242603081106030800487047A0
:10B9A00020020020014800F020BB00BF645D0020A1
:10B9B000014800F01BBB00BF645D002070B5466A03
:10B9C00004460D463EB91020FEF7C8FBC0E90166EB
:10B9D00060620660C660666AF36883B1636ADB68AA
:10B9E00053F82500B8B9012101FA05F6721D92003D
:10B9F000204600F0ECFA60B1C0E901560EE02122C9
:10BA00000421204600F0E3FA636AF060DB68002B53
:10BA1000E4D1002070BD026843F825200023C0E96E
:10BA20000333F7E770B5466A05460C463EB9102069
:10BA3000FEF794FBC0E9016668620660C6603CB12F
:10BA40006B6A6268DB6853F82210216043F8224079
:10BA500070BD2DE9F0410E69074698460C4601F18C
:10BA6000140000230568A9B202FB01814FEA114CC2
:10BA70002D0C02FB05C589B2013301EB05419E4245
:10BA800040F8041B4FEA1548ECDCB8F1000F1BD05E
:10BA9000A368B34212DC616838460131FFF78EFFBC
:10BAA0002269023204F10C01054692000C30FEF7C7
:10BAB00065FB21463846FFF7B5FF2C4604EB8603AD
:10BAC0000136C3F8148026612046BDE8F081020CDF
:10BAD00012040346CAB90304102013F07F4F04BFB9
